:100000000C9455000C946C000C946C000C946C00D7
:100010000C946C000C946C000C946C000C946C00B0
:100020000C946C000C946C000C946C000C946C00A0
:100030000C946C000C946C000C946C000C946C0090
:100040000C946C000C946C000C946C000C946C0080
:100050000C946C000C946C000C946C000C946C0070
:100060000C946C000C946C000C946C000C946C0060
:100070000C946C000C946C000C946C000C946C0050
:100080000C946C000C946C000C946C009200950025
:1000900098009B009E00A100A400A700AA00AD004C
:1000A000B000B300B600B900BC0011241FBECFEFF2
:1000B000D0E4DEBFCDBF11E0A0E0B1E0E4E9F1E0C3
:1000C00000E00BBF02C007900D92AE30B107D9F728
:1000D0000E947F000C94C8000C940000CF93C82F9E
:1000E0008A3019F48DE00E946E009091C00095FF57
:1000F000FCCFC093C60080E090E0CF91089511B886
:100100008FEF87B982B918B880B1E82FEF708E2FC2
:1001100090E0FC013197EF30F105B0F7EA5BFF4F5B
:100120000C94BF0080E688B9EFCF80E688B9ECCFA9
:1001300080E788B9E9CF80E788B9E6CF88E388B956
:10014000E3CF88E388B9E0CF8CE388B9DDCF8CE3D7
:1001500088B9DACF8CE388B9D7CF8EE388B9D4CF0A
:100160008EE388B9D1CF8EE388B9CECF8FE388B93B
:10017000CBCF8FE388B9C8CF8FE388B9C5CFEE0F57
:10018000FF1F0024001C0BBE0790F691E02D099480
:04019000F894FFCF11
:0E01940000000002000000006E0000000000ED
:00000001FF
