:100000000C9446000C9465000C9465000C946500FB
:100010000C9465000C9465000C9465000C946500CC
:100020000C9465000C9465000C9465000C946500BC
:100030000C9465000C94A3000C9465000C9465006E
:100040000C9465000C9465000C9465000C9465009C
:100050000C9465000C9465000C9465000C9465008C
:100060000C9465000C9465000C9465000C9465007C
:100070000C9465000C9465000C9465000C9465006C
:100080000C9465000C9465000C94650011241FBE4F
:10009000CFEFD0E4DEBFCDBF11E0A0E0B1E0EAE7F2
:1000A000F3E000E00BBF02C007900D92A231B10750
:1000B000D9F711E0A2E1B1E001C01D92AB31B10767
:1000C000E1F70E94A1010C94BB010C940000CF93B6
:1000D000C82F8A3019F48DE00E9467009091C0000B
:1000E00095FFFCCFC093C60080E090E0CF910895CB
:1000F0008BE0809381008DE790E09093890080935E
:10010000880082E080936F00109285001092840036
:100110008091000190910101A0910201B091030131
:100120008093130190931401A0931501B0931601CD
:100130008FB780688FBF089510928100089581E085
:100140008093180108951F920F920FB60F921124F9
:100150000BB60F922F933F934F935F936F937F93C1
:100160008F939F93AF93BF93EF93FF93809113016E
:1001700090911401A0911501B09116010197A10968
:10018000B1098093130190931401A0931501B093CA
:100190001601892B8A2B8B2B91F40E949F00809152
:1001A000000190910101A0910201B091030180939F
:1001B000130190931401A0931501B0931601FF91C0
:1001C000EF91BF91AF919F918F917F916F915F91CF
:1001D0004F913F912F910F900BBE0F900FBE0F903C
:1001E0001F901895609300017093010180930201A4
:1001F0009093030160931301709314018093150190
:1002000090931601089580B1809581702091190115
:1002100030911A0122303105F1F038F42115310501
:1002200061F02130310581F068C02330310581F162
:100230002430310509F445C060C081E090E090931E
:100240001A018093190159C082E090E090931A013D
:100250008093190152C081110BC090911701943005
:1002600039F484E090E090931A018093190145C01D
:10027000882339F083E090E090931A01809319016C
:100280003CC082E090E090931A018093190135C040
:10029000811107C083E090E090931A0180931901C7
:1002A0002CC0882339F081E090E090931A0180936C
:1002B000190123C083E090E090931A018093190103
:1002C0001CC081110BC090911701913039F482E06C
:1002D00090E090931A01809319010FC0882339F0A0
:1002E00083E090E090931A018093190106C084E0A6
:1002F00090E090931A0180931901809119019091D7
:100300001A018130910551F030F08230910551F0A1
:10031000049771F012C0109217010FC081E0809312
:1003200017010BC080911701880F8093170105C03A
:10033000809117018695809317018091170185B9E7
:10034000089511B88FEF82B984B915B86CE271E0E5
:1003500080E090E00E94F2000E94780010921A0162
:10036000109219010E940301809118018823E1F382
:0A03700010921801F7CFF894FFCFA8
:10037A000100000000000002000000006700000009
:02038A00000071
:00000001FF
