:100000000C9446000C9465000C9465000C946500FB
:100010000C9465000C9465000C9465000C946500CC
:100020000C9465000C9465000C9465000C946500BC
:100030000C9465000C9465000C9465000C946500AC
:100040000C9465000C9465000C9465000C9465009C
:100050000C9465000C9465000C9465000C9465008C
:100060000C9465000C9465000C9465000C9465007C
:100070000C9465000C9465000C9465000C9465006C
:100080000C9465000C9465000C94650011241FBE4F
:10009000CFEFD0E4DEBFCDBF11E0A0E0B1E0E2E7FA
:1000A000F2E000E00BBF02C007900D92AE30B10746
:1000B000D9F711E0AEE0B1E001C01D92A231B10765
:1000C000E1F70E942B010C9437010C940000CF93B0
:1000D000C82F8A3019F48DE00E9467009091C0000B
:1000E00095FFFCCFC093C60080E090E0CF910895CB
:1000F00080B18095837080930F0120911001309121
:1001000011012230310529F138F42115310579F03A
:1001100021303105A9F07DC02430310509F451C0EA
:1001200008F448C02530310509F452C072C010925D
:100130000E0181E090E0909311018093100169C05D
:1001400010920E0182E090E09093110180931001D3
:1001500060C0982F917080FD0AC0282F227039F45A
:1001600082E090E0909311018093100152C09111B0
:100170000AC0282F227039F084E090E0909311019A
:100180008093100146C0992351F0282F227039F432
:1001900083E090E090931101809310013AC099237D
:1001A000C1F18270B1F181E090E0909311018093F0
:1001B00010012FC085E090E0909311018093100111
:1001C00028C085E090E0909311018093100121C038
:1001D000882339F085E090E090931101809310011D
:1001E00018C0982F917080FD0AC0282F227039F412
:1001F00082E090E090931101809310010AC099234E
:1002000041F0827031F081E090E090931101809391
:10021000100180911001909111018330910541F0FE
:100220008430910569F0019791F410920E010FC08E
:1002300080910E01893058F48F5F80930E0107C0C2
:1002400080910E01882319F0815080930E018091D6
:100250000E0188B9089511B88FEF82B987B918B81F
:1002600010921101109210010E947800FDCFF894B5
:02027000FFCFBE
:0E027200000000020000000067000000000015
:00000001FF
