:100000000C9446000C9465000C9465000C946500FB
:100010000C9465000C9465000C9465000C946500CC
:100020000C9465000C9465000C9465000C946500BC
:100030000C9465000C9410010C9465000C94650000
:100040000C9465000C9465000C9465000C9465009C
:100050000C9465000C9465000C9465000C9465008C
:100060000C9465000C9465000C9465000C9465007C
:100070000C9465000C9465000C9465000C9465006C
:100080000C9465000C9465000C94650011241FBE4F
:10009000CFEFD0E4DEBFCDBF11E0A0E0B1E0E6EFEE
:1000A000F4E000E00BBF02C007900D92A032B10750
:1000B000D9F711E0A0E2B1E001C01D92AB32B10767
:1000C000E1F70E9442020C9479020C94000040E097
:1000D00050E00CC000002F5F3F4F02C020E030E036
:1000E000273063E03607B4F34F5F5F4F4817590777
:1000F000ACF308955E9888B95F9A00005F9882E03B
:1001000090E00E946700089581E00E947A000895BF
:10011000813120F481580E947A00089581550E940F
:100120007A00089584E690E00E94670088E30E94C8
:100130007A0086E00E947A008FE00E947A0081E0D7
:100140000E947A008AE090E00E94670008955E9A1B
:1001500088B95F9A00005F9881E090E00E94670094
:100160000895EF92FF920F931F93CF93DF93182F71
:10017000EB010E9484000EC001E0010F812F0E945C
:1001800088007E018FEFE81AF80A88810E94A70094
:10019000102FE70188818111EFCFDF91CF911F915F
:1001A0000F91FF90EF900895CF93C82F8A3019F4E4
:1001B0008DE00E94D4009091C00095FFFCCFC093C9
:1001C000C60080E090E0CF9108958BE0809381009D
:1001D0008DE790E0909389008093880082E080937F
:1001E0006F00109285001092840080910001909120
:1001F0000101A0910201B09103018093210190932C
:100200002201A0932301B09324018FB780688FBF90
:10021000089510928100089581E080932801089547
:100220001F920F920FB60F9211240BB60F922F93BD
:100230003F934F935F936F937F938F939F93AF936E
:10024000BF93EF93FF938091210190912201A091A0
:100250002301B09124010197A109B10980932101E3
:1002600090932201A0932301B0932401892B8A2B20
:100270008B2B91F40E940C0180910001909101015F
:10028000A0910201B091030180932101909322017A
:10029000A0932301B0932401FF91EF91BF91AF91FF
:1002A0009F918F917F916F915F914F913F912F918E
:1002B0000F900BBE0F900FBE0F901F90189560937C
:1002C00000017093010180930201909303016093F8
:1002D00021017093220180932301909324010895BA
:1002E00080B1809581702091290130912A012230BE
:1002F0003105F1F038F42115310561F02130310577
:1003000081F068C02330310581F12430310509F4D2
:1003100045C060C081E090E090932A01809329015C
:1003200059C082E090E090932A018093290152C045
:1003300081110BC090912701943039F484E090E052
:1003400090932A018093290145C0882339F083E0E6
:1003500090E090932A01809329013CC082E090E0D4
:1003600090932A018093290135C0811107C083E051
:1003700090E090932A01809329012CC0882339F0C2
:1003800081E090E090932A018093290123C083E0CB
:1003900090E090932A01809329011CC081110BC029
:1003A00090912701913039F482E090E090932A01F6
:1003B000809329010FC0882339F083E090E0909367
:1003C0002A018093290106C084E090E090932A01DD
:1003D000809329018091290190912A018230910511
:1003E000B9F028F4009749F0019751F047C08330E5
:1003F0009105A1F00497E9F141C0109227013EC098
:10040000109226011092250181E08093270136C0C9
:1004100080912701880F8093270130C02091270108
:100420008091250190912601019690932601809359
:100430002501223081F48130910569F48091040115
:100440009091050189309105C8F4019690930501BA
:100450008093040113C0019789F480910401909165
:100460000501009759F001979093050180930401CD
:1004700005C08091270186958093270180912701EF
:1004800085B9089511B88FEF82B984B915B887B9C5
:1004900018B88AB91BB80E9492006CE271E080E043
:1004A00090E00E945F010E94E50010922A011092E4
:1004B00029010E9470010E94840081E00E9488004E
:1004C0008091040190910501C0960E94A70080913F
:1004D000040190910501099729F464E171E081E03C
:1004E0000E94B100809128018823E1F31092280135
:0604F000E0CFF894FFCFFD
:1004F6000100000005000000000200000000D4001A
:1005060000000000594F552057494E202121000078
:00000001FF
