:100000000C9446000C9465000C9465000C946500FB
:100010000C9465000C9465000C9465000C946500CC
:100020000C9465000C9465000C9465000C946500BC
:100030000C9465000C9410010C9465000C94650000
:100040000C9465000C9465000C9465000C9465009C
:100050000C9465000C9465000C9465000C9465008C
:100060000C9465000C9465000C9465000C9465007C
:100070000C9465000C9465000C9465000C9465006C
:100080000C9465000C9465000C94650011241FBE4F
:10009000CFEFD0E4DEBFCDBF11E0A0E0B1E0EAEBEE
:1000A000F4E000E00BBF02C007900D92A231B1074F
:1000B000D9F711E0A2E1B1E001C01D92AD31B10765
:1000C000E1F70E9431020C945B020C94000040E0C6
:1000D00050E00CC000002F5F3F4F02C020E030E036
:1000E000273063E03607B4F34F5F5F4F4817590777
:1000F000ACF308955E9888B95F9A00005F9882E03B
:1001000090E00E946700089581E00E947A000895BF
:10011000813120F481580E947A00089581550E940F
:100120007A00089584E690E00E94670088E30E94C8
:100130007A0086E00E947A008FE00E947A0081E0D7
:100140000E947A008AE090E00E94670008955E9A1B
:1001500088B95F9A00005F9881E090E00E94670094
:100160000895EF92FF920F931F93CF93DF93182F71
:10017000EB010E9484000EC001E0010F812F0E945C
:1001800088007E018FEFE81AF80A88810E94A70094
:10019000102FE70188818111EFCFDF91CF911F915F
:1001A0000F91FF90EF900895CF93C82F8A3019F4E4
:1001B0008DE00E94D4009091C00095FFFCCFC093C9
:1001C000C60080E090E0CF9108958BE0809381009D
:1001D0008DE790E0909389008093880082E080937F
:1001E0006F00109285001092840080910001909120
:1001F0000101A0910201B09103018093120190933B
:100200001301A0931401B09315018FB780688FBFBD
:10021000089510928100089581E080931A01089555
:100220001F920F920FB60F9211240BB60F922F93BD
:100230003F934F935F936F937F938F939F93AF936E
:10024000BF93EF93FF938091120190911301A091BE
:100250001401B09115010197A109B1098093120110
:1002600090931301A0931401B0931501892B8A2B4D
:100270008B2B91F40E940C0180910001909101015F
:10028000A0910201B0910301809312019093130198
:10029000A0931401B0931501FF91EF91BF91AF911D
:1002A0009F918F917F916F915F914F913F912F918E
:1002B0000F900BBE0F900FBE0F901F90189560937C
:1002C00000017093010180930201909303016093F8
:1002D00012017093130180931401909315010895F6
:1002E00080B18095817090B19095927020911B01A2
:1002F00030911C012230310549F138F421153105C6
:1003000079F021303105B9F082C02430310509F48B
:1003100050C008F447C02530310509F451C077C0FA
:10032000109219011092180181E090E090931C0145
:1003300080931B016CC0109219011092180182E089
:1003400090E090931C0180931B0161C0811109C052
:10035000911107C082E090E090931C0180931B01F3
:1003600056C0811109C0992339F084E090E0909340
:100370001C0180931B014BC0882349F0911107C0D9
:1003800083E090E090931C0180931B0140C0882380
:10039000F1F19923E1F181E090E090931C018093C9
:1003A0001B0135C085E090E090931C0180931B01F8
:1003B0002EC085E090E090931C0180931B0127C024
:1003C000811109C0992339F084E090E090931C01D9
:1003D00080931B011CC0882349F0911107C083E062
:1003E00090E090931C0180931B0111C0882349F079
:1003F000992339F081E090E090931C0180931B01D8
:1004000006C082E090E090931C0180931B018091D4
:100410001B0190911C018330910551F084309105AE
:10042000A1F00197E9F410921901109218010895B2
:1004300080911801909119018930910588F40196F5
:10044000909319018093180108958091180190915B
:100450001901009729F001979093190180931801D1
:10046000089511B88FEF82B987B918B88AB91BB847
:100470000E94920064EF71E080E090E00E945F01D2
:100480000E94E50010921C0110921B010E94700155
:100490000E94840081E00E94880080911801909160
:1004A0001901C0960E94A70080911A018823E1F3E8
:0A04B00010921A01EBCFF894FFCF71
:1004BA00010000000000000200000000D40000005B
:0204CA00000030
:00000001FF
