:100000000C9446000C9465000C9465000C946500FB
:100010000C9465000C9465000C9465000C946500CC
:100020000C9465000C9465000C9465000C946500BC
:100030000C9465000C94A0000C9465000C94650071
:100040000C9465000C9465000C9465000C9465009C
:100050000C9465000C9465000C9465000C9465008C
:100060000C9465000C9465000C9465000C9465007C
:100070000C9465000C9465000C9465000C9465006C
:100080000C9465000C9465000C94650011241FBE4F
:10009000CFEFD0E4DEBFCDBF11E0A0E0B1E0EEEDE8
:1000A000F1E000E00BBF02C007900D92A231B10752
:1000B000D9F711E0A2E1B1E001C01D92A631B1076C
:1000C000E1F70E94EA000C94ED000C940000CF933D
:1000D000C82F8A3019F48DE00E9467009091C0000B
:1000E00095FFFCCFC093C60080E090E0CF910895CB
:1000F0008BE0809381008DE790E09093890080935E
:10010000880082E080936F00109285001092840036
:100110008091000190910101A0910201B091030131
:100120008093120190931301A0931401B0931501D1
:100130008FB780688FBF0895109281000895089549
:100140001F920F920FB60F9211248F939F93AF932C
:10015000BF938091120190911301A0911401B0916D
:1001600015010197A109B109809312019093130120
:10017000A0931401B0931501892B8A2B8B2B81F44A
:100180008091000190910101A0910201B0910301C1
:100190008093120190931301A0931401B093150161
:1001A000BF91AF919F918F910F900FBE0F901F90B5
:1001B0001895609300017093010180930201909360
:1001C00003016093120170931301809314019093C3
:0E01D0001501089580E090E00895F894FFCFA7
:1001DE0001000000000000020000000067000000A7
:0201EE0000000F
:00000001FF
