:100000000C9446000C9465000C9465000C946500FB
:100010000C9465000C9465000C9465000C946500CC
:100020000C9465000C9465000C9465000C946500BC
:100030000C9465000C94A3000C9465000C9465006E
:100040000C9465000C9465000C9465000C9465009C
:100050000C9465000C9465000C9465000C9465008C
:100060000C9465000C9465000C9465000C9465007C
:100070000C9465000C9465000C9465000C9465006C
:100080000C9465000C9465000C94650011241FBE4F
:10009000CFEFD0E4DEBFCDBF11E0A0E0B1E0E2E001
:1000A000F8E000E00BBF02C007900D92A233B10749
:1000B000D9F711E0A2E3B1E001C01D92A034B1076D
:1000C000E1F70E946D020C94FF030C940000CF93A3
:1000D000C82F8A3019F48DE00E9467009091C0000B
:1000E00095FFFCCFC093C60080E090E0CF910895CB
:1000F0008BE0809381008DE790E09093890080935E
:10010000880082E080936F00109285001092840036
:100110008091000190910101A0910201B091030131
:100120008093320190933301A0933401B093350151
:100130008FB780688FBF089510928100089581E085
:100140008093360108951F920F920FB60F921124DB
:100150000BB60F922F933F934F935F936F937F93C1
:100160008F939F93AF93BF93EF93FF93809132014F
:1001700090913301A0913401B09135010197A1090B
:10018000B1098093320190933301A0933401B0936D
:100190003501892B8A2B8B2B91F40E949F00809133
:1001A000000190910101A0910201B091030180939F
:1001B000320190933301A0933401B0933501FF9144
:1001C000EF91BF91AF919F918F917F916F915F91CF
:1001D0004F913F912F910F900BBE0F900FBE0F903C
:1001E0001F901895609300017093010180930201A4
:1001F0009093030160933201709333018093340133
:10020000909335010895CF92DF92EF92FF926B01A8
:100210007C0120913A0130913B0140913C01509189
:100220003D010E948602882309F458C020E030E096
:10023000A901C701B6010E948602811106C0E1E949
:10024000F0E080818870808305C0E1E9F0E0808182
:100250008360808328E539E344E75FE3C701B601A3
:100260000E94860288233CF48FEF9FEF90939900C1
:100270008093980027C020E034E244EF56E4C701A1
:10028000B6010E94980318162CF41092990010924F
:10029000980018C020E030E040E053E4C701B60108
:1002A0000E949C039B01AC0160E074E284EF9AE43D
:1002B0000E948A020E94F2026150710970939900B3
:1002C000609398001092950010929400C0923A01A9
:1002D000D0923B01E0923C01F0923D01FF90EF9003
:1002E000DF90CF90089580E4809390008BE080931E
:1002F000910060E070E0CB010E940301089510922C
:10030000900010929100089580B18095877080933D
:10031000390120913E0130913F012230310509F42D
:100320005EC038F42115310561F02130310591F0BE
:100330005AC02430310549F1B0F12530310561F161
:1003400052C080FF50C081E090E090933F018093C5
:100350003E0149C081FF07C024E030E030933F01F7
:1003600020933E0109C0982F947031F025E030E0D1
:1003700030933F0120933E0180FF35C082E090E042
:1003800090933F0180933E012EC083E090E09093D4
:100390003F0180933E0127C083E090E090933F01AE
:1003A00080933E0120C081FF07C084E090E09093DD
:1003B0003F0180933E0117C0982F947039F085E07B
:1003C00090E090933F0180933E010DC080FF0BC0F1
:1003D00082E090E090933F0180933E0104C0109230
:1003E0003F0110923E0180913E0190913F01823089
:1003F000910509F46CC028F4009759F0019799F021
:10040000089584309105F1F008F450C00597A9F1E2
:100410000895109238011092370160E070E0CB012E
:100420000E940301089510923801109237016091E3
:1004300004017091050180910601909107010E94CD
:10044000030108958091370190913801873091051B
:1004500008F042C001969093380180933701880FCD
:10046000991F880F991FFC01EC5FFE4F608171811D
:10047000828193810E9403010895809137019091B8
:100480003801009749F10197909338018093370123
:10049000880F991F880F991FFC01EC5FFE4F608148
:1004A0007181828193810E9403010895E091370157
:1004B000F0913801EE0FFF1FEE0FFF1FEC5FFE4FB4
:1004C00060817181828193810E940301089560E0BF
:1004D00070E0CB010E940301089511B88FEF82B93B
:1004E0008FE484B985B90E94730164E670E080E00E
:1004F00090E00E94F2000E9478000E9484018091A6
:1005000036018823E1F310923601F7CF9CD008F42E
:1005100081E008950CD0D2C0CAD040F0C1D030F0F4
:1005200021F45F3F19F0B3C05111FCC0B6C0D7D061
:1005300098F39923C9F35523B1F3951B550BBB27AA
:10054000AA2762177307840738F09F5F5F4F220F57
:10055000331F441FAA1FA9F333D00E2E3AF0E0E850
:1005600030D091505040E695001CCAF729D0FE2F9C
:1005700027D0660F771F881FBB1F2617370748072E
:10058000AB07B0E809F0BB0B802DBF01FF279358E4
:100590005F4F2AF09E3F510568F079C0C3C05F3FAE
:1005A000ECF3983EDCF3869577956795B795F795CC
:1005B0009F5FC9F7880F911D9695879597F90895C4
:1005C000E1E0660F771F881FBB1F62177307840760
:1005D000BA0720F0621B730B840BBA0BEE1F88F76F
:1005E000E095089504D06894B1119CC008957FD01F
:1005F00088F09F5790F0B92F9927B751A0F0D1F00C
:10060000660F771F881F991F1AF0BA95C9F712C095
:10061000B13081F086D0B1E0089583C0672F782F84
:100620008827B85F39F0B93FCCF386957795679501
:10063000B395D9F73EF490958095709561957F4F6D
:100640008F4F9F4F0895990F0008550FAA0BE0E8B0
:10065000FEEF16161706E807F907C0F01216130684
:10066000E407F50798F0621B730B840B950B39F4C4
:100670000A2661F0232B242B252B21F408950A262A
:1006800009F4A140A6958FEF811D811D089597F96A
:100690009F6780E870E060E008959FEF80EC089528
:1006A00000240A9416161706180609060895002451
:1006B0000A9412161306140605060895092E0394CB
:1006C000000C11F4882352F0BB0F40F4BF2B11F43F
:1006D00060FF04C06F5F7F4F8F4F9F4F089557FD9E
:1006E0009058440F551F59F05F3F71F04795880FA0
:1006F00097FB991F61F09F3F79F087950895121637
:1007000013061406551FF2CF4695F1DF08C01616E2
:1007100017061806991FF1CF869571056105089493
:100720000895E894BB2766277727CB0197F90895AA
:100730008ADF08F48FEF08950BD0C0CFB1DF28F027
:10074000B6DF18F0952309F0A2CFA7CF1124EACF86
:10075000C6DFA0F3959FD1F3950F50E0551F629F20
:10076000F001729FBB27F00DB11D639FAA27F00D0A
:10077000B11DAA1F649F6627B00DA11D661F829F31
:100780002227B00DA11D621F739FB00DA11D621F16
:10079000839FA00D611D221F749F3327A00D611D33
:1007A000231F849F600D211D822F762F6A2F112415
:1007B0009F5750408AF0E1F088234AF0EE0FFF1F68
:1007C000BB1F661F771F881F91505040A9F79E3F9F
:1007D000510570F05CCFA6CF5F3FECF3983EDCF3A1
:1007E000869577956795B795F795E7959F5FC1F7DC
:1007F000FE2B880F911D9695879597F90895F8948B
:02080000FFCF28
:1008020001000000A4D082437BD49243A4D0A4432D
:10081200719DAE430000C4430000DC43A4F0F643E4
:1008220000D0024400000002000000006700000047
:020832000000C4
:00000001FF
