:100000000C9446000C9465000C9465000C946500FB
:100010000C9465000C9465000C9465000C946500CC
:100020000C9465000C9465000C9465000C946500BC
:100030000C9465000C94ED010C9465000C94650023
:100040000C9465000C9465000C9465000C9465009C
:100050000C9465000C9465000C9465000C9465008C
:100060000C9465000C9465000C9465000C9465007C
:100070000C9465000C9465000C9465000C9465006C
:100080000C9465000C9465000C94650011241FBE4F
:10009000CFEFD0E4DEBFCDBF11E0A0E0B1E0ECE7F0
:1000A000F4E000E00BBF02C007900D92A432B1074C
:1000B000D9F711E0A4E2B1E001C01D92A635B10765
:1000C000E1F70E9452010C943C020C940000CF9383
:1000D000C82F8A3019F48DE00E9467009091C0000B
:1000E00095FFFCCFC093C60080E090E0CF910895CB
:1000F0008130910551F01CF4892B51F011C08230F0
:10010000910589F0039749F00BC082E090E00DC0A3
:100110001092270181E090E008C081E090E005C0E6
:1001200080E090E002C083E090E08130910571F0C2
:100130001CF4009741F008958230910559F0833006
:10014000910561F0089510922701089521E0209310
:100150002701089522E020932701089524E02093A9
:10016000270108958130910531F08230910571F0B9
:10017000892B49F403C082E090E00AC01092260166
:1001800081E090E005C080E090E002C081E090E076
:100190008130910551F08230910559F0009759F462
:1001A0001092260181E090E0089528E02093260136
:1001B00008951092260108959C0190B19095947035
:1001C000909324012130310531F02230310571F056
:1001D000232B49F403C022E030E00AC0109225012D
:1001E00021E030E005C020E030E002C021E030E056
:1001F0002130310559F02230310571F021153105DA
:1002000069F41092250121E030E008C0992331F013
:1002100080E18093250102C010922501C901089553
:100220009091260180912701892B90912501892B9E
:1002300085B908958BE0809381008DE790E09093DD
:1002400089008093880082E080936F00109285007F
:10025000109284008091000190910101A09102010F
:10026000B09103018093280190932901A0932A0162
:10027000B0932B018FB780688FBF089510928100D3
:10028000089560930001709301018093020190939F
:100290000301609328017093290180932A019093B0
:1002A0002B01089511B88FEF82B984B915B8ECE22B
:1002B000F1E0118210828CE291E0A0E0B0E0828354
:1002C0009383A483B58386839783A087B18788E7C8
:1002D00090E0938782871586148688EE93E0A0E0ED
:1002E000B0E086879787A08BB18B828B938BA48B92
:1002F000B58B82EB90E0978B868B118E108E82E00F
:1003000090E0A0E0B0E0828F938FA48FB58F868FAE
:10031000978FA0A3B1A38CED90E093A382A362E09A
:1003200070E080E090E00E9441010E941A01FFCF3E
:10033000EF92FF921F93CF93DF9310E043C0C12F42
:10034000D0E0CE01880F991F8C0F9D1F880F991F39
:10035000880F991FFC01E45DFE4F4681578160853F
:10036000718582819381A481B581481759076A07F5
:100370007B0778F07F01DF010284F385E02D8D910A
:100380009C910995F70191838083168217821086CC
:1003900011869E01220F331FC9018C0F9D1F880FEC
:1003A000991F880F991FFC01E45DFE4F868197819C
:1003B000A085B1850296A11DB11D86839783A08774
:1003C000B1871F5F133008F4BACF0E941001DF918C
:1003D000CF911F91FF90EF9008951F920F920FB64B
:1003E0000F9211240BB60F922F933F934F935F936D
:1003F0006F937F938F939F93AF93BF93EF93FF93ED
:100400008091280190912901A0912A01B0912B019E
:100410000197A109B1098093280190932901A09324
:100420002A01B0932B01892B8A2B8B2B91F40E94EC
:1004300098018091000190910101A0910201B09179
:1004400003018093280190932901A0932A01B0937E
:100450002B01FF91EF91BF91AF919F918F917F9170
:100460006F915F914F913F912F910F900BBE0F9025
:0C0470000FBE0F901F901895F894FFCF5E
:10047C000100000000000002000000006700000006
:10048C0000000200000002000000E80300002C0144
:04049C000000030059
:00000001FF
