:100000000C9446000C9465000C9465000C946500FB
:100010000C9465000C9465000C9465000C946500CC
:100020000C9465000C9465000C9465000C946500BC
:100030000C9465000C949F010C9465000C94650071
:100040000C9465000C9465000C9465000C9465009C
:100050000C9465000C9465000C9465000C9465008C
:100060000C9465000C9465000C9465000C9465007C
:100070000C9465000C9465000C9465000C9465006C
:100080000C9465000C9465000C94650011241FBE4F
:10009000CFEFD0E4DEBFCDBF11E0A0E0B1E0E0EEF5
:1000A000F3E000E00BBF02C007900D92A032B10751
:1000B000D9F711E0A0E2B1E001C01D92A234B1076E
:1000C000E1F70E941B010C94EE010C940000CF9309
:1000D000C82F8A3019F48DE00E9467009091C0000B
:1000E00095FFFCCFC093C60080E090E0CF910895CB
:1000F0008130910551F01CF4892B51F011C08230F0
:10010000910589F0039749F00BC082E090E00DC0A3
:100110001092210181E090E008C081E090E005C0EC
:1001200080E090E002C083E090E08130910571F0C2
:100130001CF4009741F008958230910559F0833006
:10014000910561F0089510922101089521E0209316
:100150002101089522E020932101089524E02093B5
:10016000210108958130910531F08230910571F0BF
:10017000892B49F403C082E090E00AC0109220016C
:1001800081E090E005C080E090E002C081E090E076
:100190008130910551F08230910559F0009759F462
:1001A0001092200181E090E0089528E02093200142
:1001B00008951092200108959091200180912101CD
:1001C000892B85B908958BE0809381008DE790E0BD
:1001D000909389008093880082E080936F00109252
:1001E0008500109284008091000190910101A091FE
:1001F0000201B09103018093220190932301A09307
:100200002401B09325018FB780688FBF08951092A5
:1002100081000895609300017093010180930201B1
:100220009093030160932201709323018093240132
:100230009093250108958FEF84B915B8E6E2F1E0B7
:100240001182108288EE93E0A0E0B0E08283938375
:10025000A483B58386839783A087B18728E730E09E
:10026000338722871586148686879787A08BB18B64
:10027000828B938BA48BB58B82EB90E0978B868BD4
:1002800068EE73E080E090E00E940A010E94E300C3
:10029000FFCFEF92FF921F93CF93DF9310E044C004
:1002A000C12FD0E0CE01880F991F8C0F9D1F880FA2
:1002B000991F880F991FFC01EA5DFE4F4681578107
:1002C0006085718582819381A481B5814817590722
:1002D0006A077B0778F07F01DF010284F385E02D58
:1002E0008D919C910995F7019183808316821782E5
:1002F000108611869E01220F331FC9018C0F9D1F8E
:10030000880F991F880F991FFC01EA5DFE4F8681B7
:100310009781A085B18588519C4FAF4FBF4F868391
:100320009783A087B1871F5F123008F4B9CF0E946E
:10033000DC00DF91CF911F91FF90EF9008951F9205
:100340000F920FB60F9211240BB60F922F933F937B
:100350004F935F936F937F938F939F93AF93BF93CD
:10036000EF93FF938091220190912301A0912401AA
:10037000B09125010197A109B109809322019093C1
:100380002301A0932401B0932501892B8A2B8B2B69
:1003900091F40E9449018091000190910101A09186
:1003A0000201B09103018093220190932301A09355
:1003B0002401B0932501FF91EF91BF91AF919F91DF
:1003C0008F917F916F915F914F913F912F910F90FE
:1003D0000BBE0F900FBE0F901F901895F894FFCF93
:1003E00001000000000000020000000067000000A3
:1003F0000000E8030000E8030000E803000002003A
:00000001FF
