:100000000C9446000C9465000C9465000C946500FB
:100010000C9465000C9465000C9465000C946500CC
:100020000C9465000C9465000C9465000C946500BC
:100030000C9465000C9465000C9465000C946500AC
:100040000C9465000C9465000C9465000C9465009C
:100050000C9465000C9465000C9465000C9465008C
:100060000C9465000C9465000C9465000C9465007C
:100070000C9465000C9465000C9465000C9465006C
:100080000C9465000C9465000C94650011241FBE4F
:10009000CFEFD0E4DEBFCDBF11E0A0E0B1E0EAE0F9
:1000A000F2E000E00BBF02C007900D92AE30B10746
:1000B000D9F711E0AEE0B1E001C01D92A231B10765
:1000C000E1F70E94F7000C9403010C940000CF9319
:1000D000C82F8A3019F48DE00E9467009091C0000B
:1000E00095FFFCCFC093C60080E090E0CF910895CB
:1000F00080B18095817080930F0120911001309123
:1001000011012230310511F138F42115310561F06A
:100110002130310591F040C02430310581F140F1AA
:100120002530310599F138C010920E0181E090E040
:1001300090931101809310012FC010920E0182E064
:1001400090E0909311018093100126C0811107C0A7
:1001500083E090E090931101809310011DC08170A5
:10016000D9F084E090E0909311018093100114C0C5
:1001700085E090E090931101809310010DC085E01F
:1001800090E0909311018093100106C082E090E00E
:1001900090931101809310018091100190911101B1
:1001A00083309105A9F030F48130910549F0029730
:1001B00059F019C08430910579F0059789F013C082
:1001C0008AE280930E010FC08AE280930E010BC079
:1001D00085E180930E0107C08FE080930E0103C07C
:1001E0008FEF80930E0180910E0185B9089511B8AB
:1001F0008FEF82B984B915B81092110110921001D5
:0A0200000E947800FDCFF894FFCFB4
:0E020A0000000002000000006700000000007D
:00000001FF
