:100000000C9446000C945D000C945D000C945D0013
:100010000C945D000C945D000C945D000C945D00EC
:100020000C945D000C945D000C945D000C945D00DC
:100030000C945D000C945D000C945D000C945D00CC
:100040000C945D000C945D000C945D000C945D00BC
:100050000C945D000C945D000C945D000C945D00AC
:100060000C945D000C945D000C945D000C945D009C
:100070000C945D000C945D000C945D000C945D008C
:100080000C945D000C945D000C945D0011241FBE67
:10009000CFEFD0E4DEBFCDBF11E0A0E0B1E0E0E102
:1000A000F1E000E00BBF02C007900D92AE30B10747
:1000B000D9F70E9476000C9486000C940000CF9330
:1000C000C82F8A3019F48DE00E945F009091C00023
:1000D00095FFFCCFC093C60080E090E0CF910895DB
:1000E000EAE7F0E08081806E8083089511B88FEF99
:1000F00082B984B915B88AB91BB80E947000809182
:1001000078009091790085B99BB9F9CFF894FFCF29
:0E01100000000002000000005F000000000080
:00000001FF
