:100000000C944E000C946D000C946D000C946D00DB
:100010000C946D000C946D000C946D000C946D00AC
:100020000C946D000C946D000C946D000C946D009C
:100030000C946D000C94AB000C946D000C946D004E
:100040000C946D000C946D000C946D000C946D007C
:100050000C946D000C946D000C946D000C946D006C
:100060000C946D000C946D000C946D000C946D005C
:100070000C946D000C946D000C946D000C946D004C
:100080000C946D000C946D000C946D001A0121010C
:1000900028012F0168016F01A801AF0111241FBEC3
:1000A000CFEFD0E4DEBFCDBF11E0A0E0B1E0E6E7E6
:1000B000F4E000E00BBF02C007900D92A231B1073F
:1000C000D9F711E0A2E1B1E001C01D92AD31B10755
:1000D000E1F70E9416020C9439020C940000CF93B1
:1000E000C82F8A3019F48DE00E946F009091C000F3
:1000F00095FFFCCFC093C60080E090E0CF910895BB
:100100008BE0809381008DE790E09093890080934D
:10011000880082E080936F00109285001092840026
:100120008091000190910101A0910201B091030121
:100130008093130190931401A0931501B0931601BD
:100140008FB780688FBF089510928100089581E075
:1001500080931A0108951F920F920FB60F921124E7
:100160000BB60F922F933F934F935F936F937F93B1
:100170008F939F93AF93BF93EF93FF93809113015E
:1001800090911401A0911501B09116010197A10958
:10019000B1098093130190931401A0931501B093BA
:1001A0001601892B8A2B8B2B91F40E94A70080913A
:1001B000000190910101A0910201B091030180938F
:1001C000130190931401A0931501B0931601FF91B0
:1001D000EF91BF91AF919F918F917F916F915F91BF
:1001E0004F913F912F910F900BBE0F900FBE0F902C
:1001F0001F90189560930001709301018093020194
:10020000909303016093130170931401809315017F
:1002100090931601089580B180958170E0911B0143
:10022000F0911C01E830F10508F0D0C0EA5BFF4F07
:100230000C94300281E090E090931C0180931B01AC
:10024000C5C082E090E090931C0180931B01BEC06A
:1002500083E090E090931C0180931B01B7C0811153
:100260000DC02091170130911801232B39F484E03F
:1002700090E090931C0180931B01A8C0882381F01B
:100280008091170190911801019690931801809325
:10029000170183E090E090931C0180931B0196C0AE
:1002A00080911701909118018130910539F483E014
:1002B00090E090931C0180931B0188C0029708F482
:1002C00085C081E090E090931C0180931B017EC06B
:1002D00085E090E090931C0180931B0177C0811111
:1002E0000DC02091170130911801232B39F486E0BD
:1002F00090E090931C0180931B0168C0882381F0DB
:1003000080911701909118010196909318018093A4
:10031000170185E090E090931C0180931B0156C06B
:1003200080911701909118018130910539F485E091
:1003300090E090931C0180931B0148C0029708F441
:1003400045C081E090E090931C0180931B013EC06A
:1003500087E090E090931C0180931B0137C08111CE
:100360000DC02091170130911801232B39F482E040
:1003700090E090931C0180931B0128C0882381F09A
:100380008091170190911801019690931801809324
:10039000170187E090E090931C0180931B0116C029
:1003A00080911701909118018130910539F487E00F
:1003B00090E090931C0180931B0108C0029730F0DD
:1003C00081E090E090931C0180931B0180911B01C0
:1003D00090911C0182309105D1F028F4009749F0EA
:1003E000019771F01FC084309105A9F00697B9F00C
:1003F00019C010921901109218011092170112C021
:100400001092190110921801109217010BC081E08F
:100410008093190107C082E08093190103C084E032
:10042000809319018091190185B9089511B88FEF52
:1004300082B984B915B86CE271E080E090E00E9466
:10044000FA000E94800010921C0110921B010E9471
:100450000B0180911A018823E1F310921A01F7CF62
:10046000EE0FFF1F0024001C0BBE0790F691E02D3D
:060470000994F894FFCF8F
:100476000100000000000002000000006F00000004
:02048600000074
:00000001FF
