:100000000C9446000C945D000C945D000C945D0013
:100010000C945D000C945D000C945D000C945D00EC
:100020000C945D000C945D000C945D000C945D00DC
:100030000C945D000C945D000C945D000C945D00CC
:100040000C945D000C945D000C945D000C945D00BC
:100050000C945D000C945D000C945D000C945D00AC
:100060000C945D000C945D000C945D000C945D009C
:100070000C945D000C945D000C945D000C945D008C
:100080000C945D000C945D000C945D0011241FBE67
:10009000CFEFD0E4DEBFCDBF11E0A0E0B1E0E8EBF0
:1000A000F1E000E00BBF02C007900D92AC30B10749
:1000B000D9F70E94CC000C94DA000C94000040E0C8
:1000C00050E00CC000002F5F3F4F02C020E030E046
:1000D000273063E03607B4F34F5F5F4F4817590787
:1000E000ACF308955E9888B95F9A00005F9882E04B
:1000F00090E00E945F00089581E00E9472000895E0
:10010000813120F481580E947200089581550E9427
:100110007200089584E690E00E945F0088E30E94E8
:10012000720086E00E9472008FE00E94720081E0FF
:100130000E9472008AE090E00E945F0008955E9A3B
:1001400088B95F9A00005F9881E090E00E945F00AC
:100150000895EF92FF920F931F93CF93DF93182F81
:10016000EB010E947C000EC001E0010F812F0E9474
:1001700080007E018FEFE81AF80A88810E949F00B4
:10018000102FE70188818111EFCFDF91CF911F916F
:100190000F91FF90EF9008958FEF87B918B88AB943
:1001A0001BB88BB90E948A0060E071E081E00E9478
:0801B000A900FFCFF894FFCF76
:0C01B80048454C4C4F20574F524C44001F
:00000001FF
